:100000000C9436000C9453000C9453000C94530041
:100010000C9453000C9453000C9453000C94530014
:100020000C9453000C9453000C9453000C94530004
:100030000C9453000C9453000C9453000C945300F4
:100040000C9453000C9453000C9453000C945300E4
:100050000C9453000C9453000C9453000C945300D4
:100060000C9453000C945300B100BE0011241FBE29
:10007000CFEFD8E0DEBFCDBF21E0A0E0B1E001C00E
:100080001D92A630B207E1F710E0C5E3D0E004C04E
:100090002197FE010E94E901C433D107C9F70E94EC
:1000A0006E000C94EF010C940000CF93DF93CDB75A
:1000B000DEB70000DF91CF910895CF93DF93CDB7E6
:1000C000DEB783E091E00E947701682F80E091E045
:1000D0000E94B0010000DF91CF910895CF93DF938C
:1000E000CDB7DEB70E9455000E945D00FDCFCF93D3
:1000F000DF9300D000D0CDB7DEB79A8389837C83AD
:100100006B8389819A810197A1F48B819C810196EF
:1001100081F441E050E06DE070E080E091E00E9409
:10012000CB0040E050E062E070E083E091E00E94AC
:10013000CB0089819A81892B61F48B819C81019606
:1001400041F483E091E00E946A0180E091E00E9426
:100150006A0100000F900F900F900F90DF91CF91E8
:100160000895CF93DF93CDB7DEB76FEF7FEF81E0D8
:1001700090E00E947700DF91CF910895CF93DF93B5
:10018000CDB7DEB76FEF7FEF80E090E00E947700A1
:10019000DF91CF910895CF93DF9300D000D000D0AE
:1001A000CDB7DEB79A8389837C836B835E834D836F
:1001B0008B819C810897ACF489819A8122E030E0A0
:1001C000FC013183208381E090E00B8002C0880F26
:1001D000991F0A94E2F7282F89819A81FC012283D2
:1001E00016C089819A81FC01118210828B819C81C9
:1001F0009C012850310981E090E002C0880F991FCE
:100200002A95E2F7282F89819A81FC01228389812E
:100210009A81FC0180819181892B31F58D819E81AC
:10022000892B71F484E290E024E230E0F90140810E
:1002300029813A81F9012281242BFC01208340C0CD
:100240008D819E810197E1F584E290E024E230E027
:10025000F9012081422F29813A81F90122812095DB
:100260002423FC0120832CC089819A81FC01808198
:100270009181029729F58D819E81892B71F48AE203
:1002800090E02AE230E0F901408129813A81F901C8
:100290002281242BFC01208313C08D819E81019734
:1002A00079F48AE290E02AE230E0F9012081422FDD
:1002B00029813A81F901228120952423FC012083A0
:1002C000000026960FB6F894DEBF0FBECDBFDF91BB
:1002D000CF910895CF93DF9300D0CDB7DEB79A8347
:1002E000898300000F900F90DF91CF910895CF93F5
:1002F000DF9300D0CDB7DEB79A83898389819A8155
:10030000FC0180819181892B79F483E290E0FC01EA
:10031000208189819A81FC018281922F982381E03A
:100320009923C9F480E017C089819A81FC018081FA
:100330009181029779F489E290E0FC012081898122
:100340009A81FC018281922F982381E0992319F4EC
:1003500080E001C080E00F900F90DF91CF91089571
:10036000CF93DF9300D01F92CDB7DEB79A838983F6
:100370006B8389819A81FC0180819181892B71F441
:1003800083E290E023E230E0F901408129813A8163
:10039000F90122812423FC01208314C089819A81E0
:1003A000FC0180819181029769F489E290E029E261
:1003B00030E0F901408129813A81F9012281242329
:1003C000FC01208300000F900F900F90DF91CF91E0
:1003D0000895EE0FFF1F0590F491E02D099410E0B1
:1003E000C5E3D0E004C0FE010E94E9012196C633B6
:0803F000D107C9F7F894FFCF13
:00000001FF
