:100000000C9438000C9427030C9458030C94600053
:100010000C9460000C9460000C9460000C946000E0
:100020000C9460000C9460000C9460000C946000D0
:100030000C9460000C9460000C9460000C946000C0
:100040000C9460000C9460000C94A5040C94E304E0
:100050000C9460000C9460000C9460000C946000A0
:100060000C9460000C9460003B014A054801570560
:1000700011241FBECFEFD8E0DEBFCDBF11E0A0E05E
:10008000B1E0E8E4F2E102C005900D92A632B107BA
:10009000D9F721E0A6E2B1E001C01D92AE37B20768
:1000A000E1F710E0C6E3D0E004C02197FE010E9412
:1000B0002706C433D107C9F70E94EE000C94170934
:1000C0000C940000CF93DF93CDB7DEB790912D0154
:1000D00081E0892780932D010000DF91CF91089561
:1000E000CF93DF93CDB7DEB769E68CE291E00E9453
:1000F000C10390912D0181E0892780932D0100009B
:10010000DF91CF910895CF93DF93CDB7DEB763E74B
:100110008CE291E00E94C10310922D0178940000BE
:10012000DF91CF910895CF93DF93CDB7DEB7A1973D
:100130000FB6F894DEBF0FBECDBF80912D01682FA2
:1001400086E291E00E94CA0289E291E00E94910257
:10015000882331F060E071E08CE291E00E94E503D9
:100160008CE291E00E94350421E0181619060CF08B
:1001700020E0222349F18CE291E00E948A048F5F03
:1001800089838981082E000C990B292F2F938F9337
:1001900088E091E0892F8F9388E091E08F93CE01E2
:1001A0000296292F2F938F930E942D060F900F9068
:1001B0000F900F900F900F90CE010296BC018CE231
:1001C00091E00E94E503CCCF0000A1960FB6F89411
:1001D000DEBF0FBECDBFDF91CF910895CF93DF93E8
:1001E000CDB7DEB70E9483000E949300FDCFCF936E
:1001F000DF9300D000D0CDB7DEB79A8389837C83AC
:100200006B8389819A810197D1F48B819C810196BE
:10021000B1F441E050E06DE070E086E291E00E94D0
:10022000550122E630E046E050E063E070E089E20C
:1002300091E00E9414028CE291E00E94890389817E
:100240009A81892B81F48B819C81019661F48CE2E7
:1002500091E00E94B40389E291E00E94840286E268
:1002600091E00E94840200000F900F900F900F9079
:10027000DF91CF910895CF93DF93CDB7DEB76FEFC6
:100280007FEF81E090E00E94F700DF91CF91089529
:10029000CF93DF93CDB7DEB76FEF7FEF80E090E0D5
:1002A0000E94F700DF91CF910895CF93DF9300D0A4
:1002B00000D000D0CDB7DEB79A8389837C836B836F
:1002C0005E834D834D815E812B813C8189819A8142
:1002D000B9010E947501000026960FB6F894DEBFA2
:1002E0000FBECDBFDF91CF910895CF93DF9300D0A4
:1002F00000D000D0CDB7DEB79A8389837C836B832F
:100300005E834D838B819C810897ACF489819A81AF
:1003100022E030E0FC013183208381E090E00B801B
:1003200002C0880F991F0A94E2F7282F89819A81C9
:10033000FC01228316C089819A81FC0111821082FE
:100340008B819C819C012850310981E090E002C0A2
:10035000880F991F2A95E2F7282F89819A81FC013D
:10036000228389819A81FC0180819181892B31F5D9
:100370008D819E81019771F484E290E024E230E067
:10038000F901408129813A81F9012281242BFC0164
:10039000208340C08D819E81892BE1F584E290E02D
:1003A00024E230E0F9012081422F29813A81F901CC
:1003B000228120952423FC0120832CC089819A81ED
:1003C000FC0180819181029729F58D819E810197A1
:1003D00071F48AE290E02AE230E0F901408129815B
:1003E0003A81F9012281242BFC01208313C08D81E5
:1003F0009E81892B79F48AE290E02AE230E0F901CB
:100400002081422F29813A81F901228120952423DC
:10041000FC012083000026960FB6F894DEBF0FBEC5
:10042000CDBFDF91CF910895CF93DF93CDB7DEB7E6
:100430002D970FB6F894DEBF0FBECDBF9F838E837E
:10044000798768875B874A873D872C874A855B85E4
:10045000288539858E819F81B9010E947501888523
:10046000998502979A83898389819A819C01220FB9
:10047000331F83E090E002C0880F991F2A95E2F7AE
:100480009C838B8389819A81880F991F825D9E4FFF
:100490002C853D85FC01318320838A859B850397CC
:1004A00029813A81220F331F02C0880F991F2A9594
:1004B000E2F78D8389E690E029E630E0F9012081BA
:1004C000322F2B81209532232D81232BFC01208379
:1004D0008DE390E02DE330E0F9012081422F21E00F
:1004E00030E0098002C0220F331F0A94E2F7242B68
:1004F000FC01208300002D960FB6F894DEBF0FBEDE
:10050000CDBFDF91CF910895CF93DF9300D0CDB7CA
:10051000DEB79A83898300000F900F90DF91CF910F
:100520000895CF93DF9300D0CDB7DEB79A83898348
:1005300089819A81FC0180819181892B79F483E200
:1005400090E0FC01208189819A81FC018281922FB7
:10055000982381E09923C9F480E017C089819A81AA
:10056000FC0180819181029779F489E290E0FC019D
:10057000208189819A81FC018281922F982381E0D8
:10058000992319F480E001C080E00F900F90DF9173
:10059000CF910895CF93DF9300D01F92CDB7DEB7F0
:1005A0009A8389836B8389819A81FC0180819181FF
:1005B000892B09F58B81882371F085E290E025E293
:1005C00030E0F901408129813A81F9012281242B0F
:1005D000FC01208335C085E290E025E230E0F9019E
:1005E0002081422F29813A81F901228120952423FB
:1005F000FC01208325C089819A81FC018081918141
:100600000297F1F48B81882371F08BE290E02BE26A
:1006100030E0F901408129813A81F9012281242BBE
:10062000FC0120830DC08BE290E02BE230E0F90169
:10063000408129813A81F90122812423FC01208310
:1006400000000F900F900F90DF91CF9108951F92AF
:100650000F9200905F000F9211242F933F934F93BE
:100660005F936F937F938F939F93AF93BF93EF931A
:10067000FF93CF93DF93CDB7DEB780912E0190919A
:100680002F01FC0109950000DF91CF91FF91EF91BF
:10069000BF91AF919F918F917F916F915F914F919A
:1006A0003F912F910F9000925F000F901F9018952F
:1006B0001F920F9200905F000F9211242F933F938F
:1006C0004F935F936F937F938F939F93AF93BF935A
:1006D000EF93FF93CF93DF93CDB7DEB780913001D7
:1006E00090913101FC0109950000DF91CF91FF91BC
:1006F000EF91BF91AF919F918F917F916F915F919A
:100700004F913F912F910F9000925F000F901F909B
:100710001895CF93DF9300D000D0CDB7DEB79C8380
:100720008B8387E690E09A83898385EC90E029812A
:100730003A81232F3327FC01208384EC90E0298128
:10074000FC01208381EC90E028E9FC01208382EC0D
:1007500090E026E0FC01208300000F900F900F90A6
:100760000F90DF91CF910895CF93DF9300D0CDB755
:10077000DEB79A83898300000F900F90DF91CF91AD
:100780000895CF93DF9300D01F92CDB7DEB79A8341
:1007900089836B8380EC90E0FC018081882F90E05E
:1007A0008072992721E0892B09F020E0222309F0AB
:1007B000F1CF86EC90E02B81FC01208300000F90AC
:1007C0000F900F90DF91CF910895CF93DF9300D0DA
:1007D00000D000D0CDB7DEB79C838B837E836D8342
:1007E0001A82198289819A812D813E81820F931FFD
:1007F000FC0180818823A1F089819A812D813E812D
:10080000820F931FFC018081282F8B819C81622F96
:100810000E94C10389819A8101969A838983E2CFDC
:10082000000026960FB6F894DEBF0FBECDBFDF9155
:10083000CF910895CF93DF9300D0CDB7DEB79A83E1
:10084000898380EC90E0FC0180818095881F882757
:10085000881F882309F0F5CF86EC90E0FC018081A9
:100860000F900F90DF91CF910895CF93DF9300D039
:10087000CDB7DEB79A83898388E591E00E94800531
:100880000F900F90DF91CF910895CF93DF9300D019
:100890001F92CDB7DEB79A8389836B8300000F90D8
:1008A0000F900F90DF91CF910895CF93DF9300D0F9
:1008B00000D000D0CDB7DEB79C838B837E836D8361
:1008C0001A82198289819A812D813E81820F931F1C
:1008D000FC0180818823A1F089819A812D813E814C
:1008E000820F931FFC018081282F8B819C81622FB6
:1008F0000E94450489819A8101969A838983E2CF77
:10090000000026960FB6F894DEBF0FBECDBFDF9174
:10091000CF910895CF93DF9300D0CDB7DEB79A8300
:10092000898388E591E00E94800521E0892B09F008
:1009300020E0222309F0F5CF88E591E00E9491059F
:100940000F900F90DF91CF9108951F920F9200901A
:100950005F000F9211242F933F934F935F936F93F8
:100960007F938F939F93AF93BF93EF93FF93CF9317
:10097000DF93CDB7DEB70E94D2040000DF91CF91A4
:10098000FF91EF91BF91AF919F918F917F916F9167
:100990005F914F913F912F910F9000925F000F90C8
:1009A0001F901895CF93DF93CDB7DEB786EC90E01C
:1009B000FC018081682F88E591E00E94D505000048
:1009C000DF91CF9108951F920F9200905F000F92D8
:1009D00011242F933F934F935F936F937F938F9344
:1009E0009F93AF93BF93EF93FF93CF93DF93CDB7D5
:1009F000DEB70E9410050000DF91CF91FF91EF91CB
:100A0000BF91AF919F918F917F916F915F914F9126
:100A10003F912F910F9000925F000F901F901895BB
:100A2000CF93DF93CDB7DEB70000DF91CF9108956C
:100A3000CF93DF9300D000D0CDB7DEB79A83898300
:100A40007C836B8389819A81019761F48B819C817E
:100A5000019641F482E391E00E94640588E591E00B
:100A60000E94640589819A81892B61F48B819C8124
:100A7000019641F488E591E00E941A0682E391E034
:100A80000E941A0600000F900F900F900F90DF91B8
:100A9000CF910895CF93DF93CDB7DEB76FEF7FEFA0
:100AA00081E090E00E941805DF91CF910895CF93E7
:100AB000DF93CDB7DEB76FEF7FEF80E090E00E946D
:100AC0001805DF91CF910895CF93DF9300D0CDB774
:100AD000DEB79A83898389819A81FC0111A210A2D1
:100AE00089819A81FC0113A212A289819A81FC0159
:100AF00015A214A200000F900F90DF91CF910895DE
:100B0000CF93DF9300D0CDB7DEB79A8389838981F5
:100B10009A81FC0180A191A10F900F90DF91CF915C
:100B20000895CF93DF9300D01F92CDB7DEB79B839C
:100B30008A838A819B81FC0180A191A1892B09F480
:100B4000F8CF8A819B81FC0182A193A12A813B81FC
:100B5000820F931FFC01808189838A819B81FC0124
:100B600082A193A101968F719078992324F4019723
:100B7000806E9F6F01969C018A819B81FC0133A34B
:100B800022A38A819B81FC0180A191A19C0121501B
:100B900031098A819B81FC0131A320A389810F90B7
:100BA0000F900F90DF91CF910895CF93DF9300D0F6
:100BB0001F92CDB7DEB79A8389836B8389819A812F
:100BC000FC0180A191A1809709F4F8CF89819A81D5
:100BD000FC0184A195A14B8129813A81820F931F49
:100BE000FC01408389819A81FC0184A195A1019631
:100BF0008F719078992324F40197806E9F6F0196EE
:100C00009C0189819A81FC0135A324A389819A8161
:100C1000FC0180A191A19C012F5F3F4F89819A81A6
:100C2000FC0131A320A300000F900F900F90DF91E3
:100C3000CF910895CF93DF9300D0CDB7DEB79A83DD
:100C4000898300000F900F90DF91CF910895EE0FF0
:100C5000FF1F0590F491E02D0994AEE0B0E0E3E3CE
:100C6000F6E00C94EE080D891E8986E08C831A83C9
:100C700009838FEF9FE79E838D83AE01475E5F4FB1
:100C80006F89788DCE0101960E944F06EF81F8851D
:100C9000E00FF11F10822E96E4E00C940A09ABE0FD
:100CA000B0E0E5E5F6E00C94E0086C017B018A0118
:100CB000FC0117821682838181FFCCC1CE0101968F
:100CC0003C01F6019381F70193FD859193FF81919A
:100CD0007F01882309F4BAC1853239F493FD8591E7
:100CE00093FF81917F01853229F4B60190E00E9443
:100CF0004608E7CF912C212C312CFFE1F315D8F0D9
:100D00008B3279F038F4803279F08332A1F4232DDC
:100D100020611DC08D3261F0803369F4232D216084
:100D200016C0832D8260382EE32DE4603E2E2AC04B
:100D3000F32DF8601DC037FC2DC020ED280F2A30A0
:100D400040F08E32B9F436FC81C1232D2064322E5E
:100D500019C036FE06C08AE0989E200D1124922EFE
:100D600011C0EAE02E9E200D1124222EF32DF062F8
:100D70003F2E08C08C3621F4832D8068382E02C0A7
:100D8000883641F4F70193FD859193FF81917F01AE
:100D90008111B3CF982F9F7D9554933028F40C5F29
:100DA0001F4F9FE399830DC0833631F0833771F075
:100DB000833509F059C021C0F801808189830E5F15
:100DC0001F4F88248394912C530113C02801F2E013
:100DD0004F0E511CF801A080B18036FE03C0692D72
:100DE00070E002C06FEF7FEFC5010E943B084C012D
:100DF0008201F32DFF773F2E16C0280122E0420E1C
:100E0000511CF801A080B18036FE03C0692D70E04E
:100E100002C06FEF7FEFC5010E9430084C01F32D37
:100E2000F0683F2E820133FC1BC0822D90E08816B3
:100E30009906B0F4B60180E290E00E9446082A9438
:100E4000F4CFF50137FC859137FE81915F01B60142
:100E500090E00E94460821102A9421E0821A91080D
:100E60008114910471F7E8C0843611F0893641F598
:100E7000F80137FE07C060817181828193810C5F28
:100E80001F4F08C060817181072E000C880B990BE1
:100E90000E5F1F4FF32DFF763F2E97FF09C09095F1
:100EA0008095709561957F4F8F4F9F4FF0683F2ED3
:100EB0002AE030E0A3010E948208882E861845C0EF
:100EC000853731F4232D2F7EB22E2AE030E025C065
:100ED000932D997FB92E8F36C1F018F4883579F0AB
:100EE000B5C0803719F0883721F0B0C0E92FE06134
:100EF000BE2EB4FE0DC0FB2DF460BF2E09C034FE23
:100F00000AC0292F2660B22E06C028E030E005C0B6
:100F100020E130E002C020E132E0F801B7FE07C076
:100F200060817181828193810C5F1F4F06C0608157
:100F3000718180E090E00E5F1F4FA3010E94820844
:100F4000882E8618FB2DFF773F2E36FE0DC0232DF1
:100F50002E7FA22E891458F434FE0BC032FC09C037
:100F6000832D8E7EA82E05C0B82CA32C03C0B82CD0
:100F700001C0B92CA4FE0FC0FE01E80DF11D808157
:100F8000803321F49A2D997EA92E09C0A2FE06C0B5
:100F9000B394B39404C08A2D867809F0B394A3FC6B
:100FA00011C0A0FE06C0B21488F4280C922C9B1825
:100FB0000EC0B21460F4B60180E290E00E944608D0
:100FC000B394F7CFB21418F42B1802C0982C212C2C
:100FD000A4FE10C0B60180E390E00E944608A2FE85
:100FE00017C0A1FC03C088E790E002C088E590E04C
:100FF000B6010CC08A2D867859F0A1FE02C08BE2A2
:1010000001C080E2A7FC8DE2B60190E00E94460894
:10101000891438F4B60180E390E00E9446089A945F
:10102000F7CF8A94F301E80DF11D8081B60190E0BD
:101030000E9446088110F5CF222009F442CEB60165
:1010400080E290E00E9446082A94F6CFF60186815D
:10105000978102C08FEF9FEF2B96E2E10C94FC0882
:10106000FC010590615070400110D8F78095909573
:101070008E0F9F1F0895FC01615070400190011078
:10108000D8F7809590958E0F9F1F08950F931F930B
:10109000CF93DF93FB01238121FD03C08FEF9FEFEF
:1010A0002CC022FF16C0468157812481358142170A
:1010B000530744F4A081B1819D012F5F3F4F3183DD
:1010C00020838C93268137812F5F3F4F3783268380
:1010D00014C08B01EC01FB010084F185E02D099522
:1010E000892BE1F6D80116968D919C911797019660
:1010F00017969C938E931697CE01DF91CF911F91F7
:101100000F910895FA01AA27283051F1203181F179
:10111000E8946F936E7F6E5F7F4F8F4F9F4FAF4FFF
:10112000B1E03ED0B4E03CD0670F781F891F9A1F12
:10113000A11D680F791F8A1F911DA11D6A0F711DC6
:10114000811D911DA11D20D009F468943F912AE0D2
:10115000269F11243019305D3193DEF6CF010895BA
:10116000462F4770405D4193B3E00FD0C9F7F6CFEB
:10117000462F4F70405D4A3318F0495D31FD4052B3
:10118000419302D0A9F7EACFB4E0A6959795879549
:1011900077956795BA95C9F7009761057105089528
:1011A0009B01AC010A2E06945795479537952795D4
:1011B000BA95C9F7620F731F841F951FA01D08956C
:1011C0002F923F924F925F926F927F928F929F9257
:1011D000AF92BF92CF92DF92EF92FF920F931F9345
:1011E000CF93DF93CDB7DEB7CA1BDB0B0FB6F894F6
:1011F000DEBF0FBECDBF09942A88398848885F8436
:101200006E847D848C849B84AA84B984C884DF80A6
:10121000EE80FD800C811B81AA81B981CE0FD11D8A
:101220000FB6F894DEBF0FBECDBFED01089510E0FC
:10123000C6E3D0E004C0FE010E9427062196C83311
:08124000D107C9F7F894FFCFB4
:10124800427574746F6E0A004F2076616C6F72205D
:10125800696E6372656D656E7461646F20C3A93AC7
:061268002025630A0000CE
:00000001FF
