:100000000C9436000C945E000C945E000C945E0020
:100010000C945E000C945E000C945E000C945E00E8
:100020000C945E000C945E000C945E000C945E00D8
:100030000C945E000C945E000C945E000C945E00C8
:100040000C945E000C945E000C945E000C945E00B8
:100050000C945E000C945E000C945E000C945E00A8
:100060000C945E000C945E00D600E30011241FBEC9
:10007000CFEFD8E0DEBFCDBF11E0A0E0B1E0EAEC09
:10008000F5E002C005900D92A031B107D9F721E04B
:10009000A0E1B1E001C01D92A731B207E1F710E085
:1000A000C5E3D0E004C02197FE010E94D202C43310
:1000B000D107C9F70E948B000C94D8020C94000061
:1000C000CF93DF93CDB7DEB760E071E086E191E0DA
:1000D0000E9490020000DF91CF910895CF93DF93AB
:1000E000CDB7DEB783E191E00E949C01682F80E1EB
:1000F00091E00E94D50183E191E00E949C01882358
:1001000031F067E071E086E191E00E94900200002A
:10011000DF91CF910895CF93DF93CDB7DEB70E94E3
:1001200060000E946E00FDCFCF93DF9300D000D01F
:10013000CDB7DEB79A8389837C836B8389819A816B
:100140000197C1F48B819C810196A1F441E050E0BC
:100150006DE070E080E191E00E94F00040E050E04E
:1001600062E070E083E191E00E94F00086E191E0BE
:100170000E94340289819A81892B81F48B819C8130
:10018000019661F486E191E00E945F0283E191E0D3
:100190000E948F0180E191E00E948F0100000F908A
:1001A0000F900F900F90DF91CF910895CF93DF9331
:1001B000CDB7DEB76FEF7FEF81E090E00E94940053
:1001C000DF91CF910895CF93DF93CDB7DEB76FEF77
:1001D0007FEF80E090E00E949400DF91CF9108953E
:1001E000CF93DF9300D000D000D0CDB7DEB79A8395
:1001F00089837C836B835E834D838B819C8108978D
:10020000ACF489819A8122E030E0FC0131832083C3
:1002100081E090E00B8002C0880F991F0A94E2F7FA
:10022000282F89819A81FC01228316C089819A81B5
:10023000FC01118210828B819C819C012850310924
:1002400081E090E002C0880F991F2A95E2F7282FDD
:1002500089819A81FC01228389819A81FC018081B4
:100260009181892B31F58D819E81019771F484E212
:1002700090E024E230E0F901408129813A81F901DE
:100280002281242BFC01208340C08D819E81892BFB
:10029000E1F584E290E024E230E0F9012081422F90
:1002A00029813A81F901228120952423FC012083B0
:1002B0002CC089819A81FC0180819181029729F566
:1002C0008D819E81019771F48AE290E02AE230E00C
:1002D000F901408129813A81F9012281242BFC0115
:1002E000208313C08D819E81892B79F48AE290E06E
:1002F0002AE230E0F9012081422F29813A81F90177
:10030000228120952423FC012083000026960FB62D
:10031000F894DEBF0FBECDBFDF91CF910895CF938C
:10032000DF9300D0CDB7DEB79A83898300000F90AA
:100330000F90DF91CF910895CF93DF9300D0CDB789
:10034000DEB79A83898389819A81FC0180819181BA
:10035000892B79F483E290E0FC01208189819A81E4
:10036000FC018281922F982381E09923C9F480E0D7
:1003700017C089819A81FC0180819181029779F46B
:1003800089E290E0FC01208189819A81FC018281CF
:10039000922F982381E0992319F480E001C080E036
:1003A0000F900F90DF91CF910895CF93DF9300D0FE
:1003B0001F92CDB7DEB79A8389836B8389819A8137
:1003C000FC0180819181892B09F58B81882371F053
:1003D00085E290E025E230E0F901408129813A810F
:1003E000F9012281242BFC01208337C085E290E0B3
:1003F00025E230E0F9012081422F29813A81F9017B
:10040000228120952423FC01208327C089819A81A1
:10041000FC0180819181029701F58B81882371F025
:100420008BE290E02BE230E0F901408129813A81B2
:10043000F9012281242BFC0120830FC08BE290E084
:100440002BE230E0F9012081422F29813A81F90124
:10045000228120952423FC01208300000F900F901F
:100460000F90DF91CF910895CF93DF9300D000D00C
:10047000CDB7DEB79C838B8387E690E09A83898330
:1004800085EC90E029813A81232F3327FC012083DA
:1004900084EC90E02981FC01208381EC90E028E14C
:1004A000FC01208382EC90E026E0FC012083000028
:1004B0000F900F900F900F90DF91CF910895CF93F1
:1004C000DF9300D0CDB7DEB79A83898300000F9009
:1004D0000F90DF91CF910895CF93DF9300D01F92BB
:1004E000CDB7DEB79A8389836B8380EC90E0FC0103
:1004F0008081882F90E08072992721E0892B09F074
:1005000020E0222309F0F1CF86EC90E02B81FC0162
:10051000208300000F900F900F90DF91CF910895EE
:10052000CF93DF9300D000D000D0CDB7DEB79C834F
:100530008B837E836D831A82198289819A812D81B2
:100540003E81820F931FFC0180818823A1F0898165
:100550009A812D813E81820F931FFC018081282F7B
:100560008B819C81622F0E946C0289819A81019605
:100570009A838983E2CF000026960FB6F894DEBFF7
:100580000FBECDBFDF91CF910895CF93DF9300D001
:10059000CDB7DEB79A83898300000F900F90DF916B
:1005A000CF910895EE0FFF1F0590F491E02D09946F
:1005B00010E0C5E3D0E004C0FE010E94D202219603
:0A05C000C633D107C9F7F894FFCF46
:1005CA0053657475700A00427574746F6E0A000080
:00000001FF
